S0110000476C6F7665446561662E73726563A6
S11300000C942A000C94A1020C94C8020C94EF02E4
S11300100C9447000C9447000C9447000C94470040
S11300200C9447000C9447000C9447000C94470030
S11300300C9447000C9447000C9447000C94470020
S11300400C9447000C9447000C9447000C94470010
S11300500C94470011241FBECFE5D8E0DEBFCDBF0E
S113006011E0A0E6B0E0E8EBF7E002C005900D92E5
S1130070A432B107D9F721E0A4E2B1E001C01D9296
S1130080A433B207E1F70E94A8030C94DA030C949A
S11300900000CF93C82F60E089E00E94300180E027
S11300A00E94C2018F709C2F907F682F692B80E083
S11300B00E94B20160E08BE00E9430018FE891E081
S11300C00197F1F700C0000061E08BE00E9430016D
S11300D08FE19EE40197F1F700C0000080E00E94E8
S11300E0C20190E1C99F900111248F70682F622B87
S11300F080E00E94B20160E08BE00E9430018FE852
S113010091E00197F1F700C0000061E08BE00E94EC
S113011030018FE39FE10197F1F700C00000CF9118
S1130120089560E08AE00E94300161E08BE00E9463
S113013030012FEF89EF90E0215080409040E1F7AB
S113014000C0000083E30E94490082E30E9449004A
S113015088E20E94490086E00E9449008CE00E94E7
S113016049000895CF93C82F61E089E00E943001CF
S113017080E00E94C2018F709C2F907F682F692BB2
S113018080E00E94B20160E08BE00E9430018FE8C1
S113019091E00197F1F700C0000061E08BE00E945C
S11301A030018FE19EE40197F1F700C0000080E088
S11301B00E94C20190E1C99F900111248F70682FA1
S11301C0622B80E00E94B20160E08BE00E9430016B
S11301D08FE891E00197F1F700C0000061E08BE047
S11301E00E9430018FE39FE10197F1F700C0000006
S11301F0CF9108950F931F93CF938C01C0E003C058
S11302000E94B200CF5FF801EC0FF11D80818111D3
S1130210F7CFCF911F910F91089581E00E9449007B
S11302200895FC0191819295990F990F907C97B94B
S11302308081806886B9089597B1907E8F71892BEB
S113024087B986B1806486B9349BFECF86B180615C
S113025086B924B185B190E0982F8827822B089520
S1130260982F9695969596958770913021F130F058
S11302709230F1F1933009F458C00895613069F473
S11302804BB321E030E0B90102C0660F771F8A95B5
S1130290E2F7CB01842B8BBB08954BB321E030E014
S11302A0B90102C0660F771F8A95E2F7CB018095EA
S11302B084238BBB0895613069F448B321E030E0B6
S11302C0B90102C0660F771F8A95E2F7CB01842B30
S11302D088BB089548B321E030E0B90102C0660F3D
S11302E0771F8A95E2F7CB018095842388BB089514
S11302F0613069F445B321E030E0B90102C0660F12
S1130300771F8A95E2F7CB01842B85BB089545B30B
S113031021E030E0B90102C0660F771F8A95E2F749
S1130320CB018095842385BB0895613069F442B381
S113033021E030E0B90102C0660F771F8A95E2F729
S1130340CB01842B82BB089542B321E030E0B90194
S113035002C0660F771F8A95E2F7CB01809584234C
S113036082BB0895813041F028F0823039F0833027
S113037039F008956BBB089568BB089565BB089573
S113038062BB0895813041F028F0823039F0833027
S113039039F008C08BB3089588B3089585B30895E0
S11303A082B3089580E0089580E0A0C0982F9695C8
S11303B096959695282F2770913061F138F09230F8
S11303C009F44CC0933009F46DC08FC0E82FF0E0FD
S11303D0EE0FFF1FE05AFF4F9081913069F49AB3FA
S11303E041E050E0BA0102C0660F771F2A95E2F798
S11303F09B01292B2ABB79C09AB341E050E0BA0192
S113040002C0660F771F2A95E2F79B0120952923E6
S11304102ABB6BC0E82FF0E0EE0FFF1FE05AFF4F3E
S11304209081913069F497B341E050E0BA0102C081
S1130430660F771F2A95E2F79B01292B27BB55C02E
S113044097B341E050E0BA0102C0660F771F2A95C6
S1130450E2F79B012095292327BB47C0E82FF0E052
S1130460EE0FFF1FE05AFF4F9081913069F494B36F
S113047041E050E0BA0102C0660F771F2A95E2F707
S11304809B01292B24BB31C094B341E050E0BA0155
S113049002C0660F771F2A95E2F79B012095292356
S11304A024BB23C0E82FF0E0EE0FFF1FE05AFF4FFC
S11304B09081913069F491B341E050E0BA0102C0F7
S11304C0660F771F2A95E2F79B01292B21BB0DC0EC
S11304D091B341E050E0BA0102C0660F771F2A953C
S11304E0E2F79B012095292321BB8F5F803208F41A
S11304F05DCF0895813041F018F0823049F00895BD
S11305008BB780648BBF08958BB780688BBF0895C9
S11305108BB780628BBF0895813049F018F0823028
S113052059F00895709329016093280108957093F8
S11305302701609326010895709325016093240197
S113054008951F920F920FB60F9211242F933F9389
S11305504F935F936F937F938F939F93AF93BF93C7
S1130560EF93FF93E0912801F09129010995FF9100
S1130570EF91BF91AF919F918F917F916F915F9117
S11305804F913F912F910F900FBE0F901F90189590
S11305901F920F920FB60F9211242F933F934F93F4
S11305A05F936F937F938F939F93AF93BF93EF93D7
S11305B0FF93E0912601F09127010995FF91EF91B6
S11305C0BF91AF919F918F917F916F915F914F9167
S11305D03F912F910F900FBE0F901F9018951F926F
S11305E00F920FB60F9211242F933F934F935F9363
S11305F06F937F938F939F93AF93BF93EF93FF93E7
S1130600E0912401F09125010995FF91EF91BF91AB
S1130610AF919F918F917F916F915F914F913F9196
S11306202F910F900FBE0F901F9018958FB7806871
S11306308FBF0895CF93DF9300D0CDB7DEB70E946C
S1130640D40187E0898381E08A83CE0101960E94E8
S113065011010E94910060E070E080E00E948C0231
S113066080E00E947A020E9416030F900F90DF919F
S1130670CF9108951F93CF93DF9310E00CC0C12F47
S1130680D0E0812F0E941C01CC0FDD1FC65DDE4F20
S1130690998388831F5F153090F3DF91CF911F9169
S11306A00895EF92FF920F931F93CF93DF9300D09F
S11306B000D01F92CDB7DEB77C0190E010E014C0EB
S11306C0E92FF0E0EE0FFF1FE65DFE4F2081318140
S11306D0253F314044F0E1E0F0E0EC0FFD1FE10F75
S11306E0F11D90831F5F9F5F953050F3112321F11B
S11306F0F701108200E01EC0F70101900020E9F725
S11307003197CF018E199F09E1E0F0E0EC0FFD1F56
S1130710E00FF11DE0814EE050E0481B590BF0E082
S1130720EE0FFF1FE056FF4F60817181C7010E94E9
S1130730CA030F5F011700F30F900F900F900F90F3
S11307400F90DF91CF911F910F91FF90EF9008953B
S1130750CF93DF93CDB7DEB72F970FB6F894DEBFF4
S11307600FBECDBF0E941A030E940D018EEB90E0D4
S11307700E94FA000E943A03CE0101960E9451039E
S113078089818823B9F30E940D01CE0101960E944C
S1130790FA00F0CFFB01DC010D900020E9F711977E
S11307A04150504028F0019000200D92C9F708955F
S10B07B01C920895F894FFCF98
S11307B8010101010101010101010101010101011D
S11307C8010101010101010101010101010101010D
S11307D801010101010101010101010101010101FD
S11307E801010101010101010101010101010101ED
S11307F8CD00D300DB00E500E900EC00F200F900CD
S1130808FE00020108010E0113011A011F01476CC1
S11308186F766520666F7220446561660048656C72
S11308286C6F00476F6F64627965005468616E6B22
S113083820796F7500596573004E6F00536F72729B
S11308487900506C656173650048656C700045619A
S113085874004472696E6B00536C65657000486F70
S11308686D65005363686F6F6C00576F726B00504F
S10708786C61790032
S9030000FC
